{
  "contractName": "SaveCloud",
  "abi": [
    {
      "constant": true,
      "inputs": [],
      "name": "saveIndex",
      "outputs": [
        {
          "name": "",
          "type": "uint256"
        }
      ],
      "payable": false,
      "stateMutability": "view",
      "type": "function"
    },
    {
      "constant": true,
      "inputs": [
        {
          "name": "",
          "type": "address"
        },
        {
          "name": "",
          "type": "uint256"
        }
      ],
      "name": "ipfs",
      "outputs": [
        {
          "name": "",
          "type": "string"
        }
      ],
      "payable": false,
      "stateMutability": "view",
      "type": "function"
    },
    {
      "constant": true,
      "inputs": [],
      "name": "token",
      "outputs": [
        {
          "name": "",
          "type": "address"
        }
      ],
      "payable": false,
      "stateMutability": "view",
      "type": "function"
    },
    {
      "inputs": [],
      "payable": false,
      "stateMutability": "nonpayable",
      "type": "constructor"
    },
    {
      "anonymous": false,
      "inputs": [
        {
          "indexed": false,
          "name": "ipfsAddress",
          "type": "string"
        }
      ],
      "name": "Upload",
      "type": "event"
    },
    {
      "anonymous": false,
      "inputs": [
        {
          "indexed": false,
          "name": "number",
          "type": "uint256"
        }
      ],
      "name": "Download",
      "type": "event"
    },
    {
      "constant": false,
      "inputs": [
        {
          "name": "tokenAddr",
          "type": "address"
        }
      ],
      "name": "initToken",
      "outputs": [],
      "payable": false,
      "stateMutability": "nonpayable",
      "type": "function"
    },
    {
      "constant": false,
      "inputs": [
        {
          "name": "ipfsAddress",
          "type": "string"
        }
      ],
      "name": "upload",
      "outputs": [
        {
          "name": "success",
          "type": "bool"
        }
      ],
      "payable": false,
      "stateMutability": "nonpayable",
      "type": "function"
    },
    {
      "constant": false,
      "inputs": [
        {
          "name": "number",
          "type": "uint256"
        }
      ],
      "name": "download",
      "outputs": [
        {
          "name": "ipfsAddr",
          "type": "string"
        }
      ],
      "payable": false,
      "stateMutability": "nonpayable",
      "type": "function"
    },
    {
      "constant": true,
      "inputs": [],
      "name": "getLength",
      "outputs": [
        {
          "name": "length",
          "type": "uint256"
        }
      ],
      "payable": false,
      "stateMutability": "view",
      "type": "function"
    }
  ],
  "bytecode": "0x6060604052341561000f57600080fd5b33600060016101000a81548173ffffffffffffffffffffffffffffffffffffffff021916908373ffffffffffffffffffffffffffffffffffffffff160217905550600060018190555060016000806101000a81548160ff0219169083600181111561007657fe5b0217905550610c868061008a6000396000f300606060405260043610610083576000357c0100000000000000000000000000000000000000000000000000000000900463ffffffff168063301367d51461008857806342ce1488146100b157806387b9c24d14610126578063a2807b6c146101c2578063be1c766b1461027d578063df4d17dc146102a6578063fc0c546a146102df575b600080fd5b341561009357600080fd5b61009b610334565b6040518082815260200191505060405180910390f35b34156100bc57600080fd5b61010c600480803590602001908201803590602001908080601f0160208091040260200160405190810160405280939291908181526020018383808284378201915050505050509190505061033a565b604051808215151515815260200191505060405180910390f35b341561013157600080fd5b61014760048080359060200190919050506107f2565b6040518080602001828103825283818151815260200191508051906020019080838360005b8381101561018757808201518184015260208101905061016c565b50505050905090810190601f1680156101b45780820380516001836020036101000a031916815260200191505b509250505060405180910390f35b34156101cd57600080fd5b610202600480803573ffffffffffffffffffffffffffffffffffffffff16906020019091908035906020019091905050610928565b6040518080602001828103825283818151815260200191508051906020019080838360005b83811015610242578082015181840152602081019050610227565b50505050905090810190601f16801561026f5780820380516001836020036101000a031916815260200191505b509250505060405180910390f35b341561028857600080fd5b6102906109f1565b6040518082815260200191505060405180910390f35b34156102b157600080fd5b6102dd600480803573ffffffffffffffffffffffffffffffffffffffff16906020019091905050610a3b565b005b34156102ea57600080fd5b6102f2610adb565b604051808273ffffffffffffffffffffffffffffffffffffffff1673ffffffffffffffffffffffffffffffffffffffff16815260200191505060405180910390f35b60015481565b6000600a600360009054906101000a900473ffffffffffffffffffffffffffffffffffffffff1673ffffffffffffffffffffffffffffffffffffffff166370a08231306000604051602001526040518263ffffffff167c0100000000000000000000000000000000000000000000000000000000028152600401808273ffffffffffffffffffffffffffffffffffffffff1673ffffffffffffffffffffffffffffffffffffffff168152602001915050602060405180830381600087803b151561040357600080fd5b6102c65a03f1151561041457600080fd5b505050604051805190501015801561044f575060018081111561043357fe5b6000809054906101000a900460ff16600181111561044d57fe5b145b1561053257600360009054906101000a900473ffffffffffffffffffffffffffffffffffffffff1673ffffffffffffffffffffffffffffffffffffffff1663a9059cbb33600a6040518363ffffffff167c0100000000000000000000000000000000000000000000000000000000028152600401808373ffffffffffffffffffffffffffffffffffffffff1673ffffffffffffffffffffffffffffffffffffffff16815260200182815260200192505050600060405180830381600087803b151561051957600080fd5b6102c65a03f1151561052a57600080fd5b505050610556565b60008060006101000a81548160ff0219169083600181111561055057fe5b02179055505b6000600181111561056357fe5b6000809054906101000a900460ff16600181111561057d57fe5b14156106c457600360009054906101000a900473ffffffffffffffffffffffffffffffffffffffff1673ffffffffffffffffffffffffffffffffffffffff166323b872dd33600060019054906101000a900473ffffffffffffffffffffffffffffffffffffffff1660026000604051602001526040518463ffffffff167c0100000000000000000000000000000000000000000000000000000000028152600401808473ffffffffffffffffffffffffffffffffffffffff1673ffffffffffffffffffffffffffffffffffffffff1681526020018373ffffffffffffffffffffffffffffffffffffffff1673ffffffffffffffffffffffffffffffffffffffff1681526020018281526020019350505050602060405180830381600087803b15156106a757600080fd5b6102c65a03f115156106b857600080fd5b50505060405180519050505b600260003373ffffffffffffffffffffffffffffffffffffffff1673ffffffffffffffffffffffffffffffffffffffff16815260200190815260200160002080548060010182816107159190610b01565b91600052602060002090016000849091909150908051906020019061073b929190610b2d565b5050600180600082825401925050819055507fd9b532128050474151a630b0e7d608a7001531c71cfa870b5628ae8fa6f215db826040518080602001828103825283818151815260200191508051906020019080838360005b838110156107af578082015181840152602081019050610794565b50505050905090810190601f1680156107dc5780820380516001836020036101000a031916815260200191505b509250505060405180910390a160019050919050565b6107fa610bad565b7f81e793f53e2d61d99e9f36e272e3df7e382acb3196c9ba38375e20e236f7e6ac826040518082815260200191505060405180910390a1600260003373ffffffffffffffffffffffffffffffffffffffff1673ffffffffffffffffffffffffffffffffffffffff1681526020019081526020016000208281548110151561087d57fe5b90600052602060002090018054600181600116156101000203166002900480601f01602080910402602001604051908101604052809291908181526020018280546001816001161561010002031660029004801561091c5780601f106108f15761010080835404028352916020019161091c565b820191906000526020600020905b8154815290600101906020018083116108ff57829003601f168201915b50505050509050919050565b60026020528160005260406000208181548110151561094357fe5b9060005260206000209001600091509150508054600181600116156101000203166002900480601f0160208091040260200160405190810160405280929190818152602001828054600181600116156101000203166002900480156109e95780601f106109be576101008083540402835291602001916109e9565b820191906000526020600020905b8154815290600101906020018083116109cc57829003601f168201915b505050505081565b6000600260003373ffffffffffffffffffffffffffffffffffffffff1673ffffffffffffffffffffffffffffffffffffffff16815260200190815260200160002080549050905090565b600060019054906101000a900473ffffffffffffffffffffffffffffffffffffffff1673ffffffffffffffffffffffffffffffffffffffff163373ffffffffffffffffffffffffffffffffffffffff16141515610a9757600080fd5b80600360006101000a81548173ffffffffffffffffffffffffffffffffffffffff021916908373ffffffffffffffffffffffffffffffffffffffff16021790555050565b600360009054906101000a900473ffffffffffffffffffffffffffffffffffffffff1681565b815481835581811511610b2857818360005260206000209182019101610b279190610bc1565b5b505050565b828054600181600116156101000203166002900490600052602060002090601f016020900481019282601f10610b6e57805160ff1916838001178555610b9c565b82800160010185558215610b9c579182015b82811115610b9b578251825591602001919060010190610b80565b5b509050610ba99190610bed565b5090565b602060405190810160405280600081525090565b610bea91905b80821115610be65760008181610bdd9190610c12565b50600101610bc7565b5090565b90565b610c0f91905b80821115610c0b576000816000905550600101610bf3565b5090565b90565b50805460018160011615610100020316600290046000825580601f10610c385750610c57565b601f016020900490600052602060002090810190610c569190610bed565b5b505600a165627a7a72305820be05bc67794522d3edf78ea1ba8faa63dfa6f849dcef019ff6e04aae44778c970029",
  "source": "pragma solidity ^0.4.16;\nimport \"./TokenERC20.sol\";\n\n\ncontract SaveCloud {\n    enum IsFinish {Yes, No}\n\n    IsFinish isFinish;\n    address private owner;\n    uint public saveIndex;\n    mapping (address=>string[]) public ipfs;\n    TokenERC20 public token;\n    \n    event Upload(string ipfsAddress );\n    event Download(uint number);\n\n    modifier onlyOwner() {\n        require(msg.sender == owner);\n        _;\n    }\n\n    function SaveCloud() public {\n        owner = msg.sender;\n        saveIndex = 0;\n        isFinish = IsFinish.No;\n    }\n\n    function initToken(address tokenAddr) public onlyOwner {\n        token = TokenERC20(tokenAddr);\n    }\n\n    function upload(string ipfsAddress) public returns (bool success) {\n        if (token.balanceOf(address(this)) >= 10 && isFinish == IsFinish.No) {\n            token.transfer(msg.sender, 10); // 合约给sender转代币，存东西送代币\n        }else {\n            isFinish = IsFinish.Yes;\n        }\n\n        if (isFinish == IsFinish.Yes) {\n            token.transferFrom(msg.sender, owner, 2);\n        }\n        /* 需要aprove，如果不加aprove的话，谁都可以来调这个函数花别人的代币了，存东西，花代币，代币转给合约账户\n        token.transferFrom(msg.sender, address(this), 10); */ \n        // token.balanceOf(this);\n        ipfs[msg.sender].push(ipfsAddress); //这里还要修改\n        saveIndex += 1;\n        Upload(ipfsAddress);\n        return true;\n    }\n\n/*     function test() public view returns (string name) {\n        string str = token.name();\n        return str;\n    } */\n\n    function download(uint number) external returns (string ipfsAddr) {\n        Download(number);\n        return ipfs[msg.sender][number];\n    }\n\n    function getLength() external view returns (uint length) {\n        return ipfs[msg.sender].length;\n    }\n}",
  "sourcePath": "/home/alextan/区块链/demo1/contracts/SaveCloud.sol",
  "compiler": {
    "name": "solc",
    "version": "0.4.19+commit.c4cbbb05.Emscripten.clang"
  },
  "schemaVersion": "2.0.0",
  "updatedAt": "2018-03-30T12:14:39.800Z"
}